{
  "_format": "hh-sol-artifact-1",
  "contractName": "Dewitter",
  "sourceName": "contracts/Dewitter.sol",
  "abi": [
    {
      "inputs": [],
      "stateMutability": "nonpayable",
      "type": "constructor"
    },
    {
      "anonymous": false,
      "inputs": [
        {
          "indexed": false,
          "internalType": "uint256",
          "name": "id",
          "type": "uint256"
        },
        {
          "indexed": false,
          "internalType": "address",
          "name": "author",
          "type": "address"
        },
        {
          "indexed": false,
          "internalType": "string",
          "name": "content",
          "type": "string"
        },
        {
          "indexed": false,
          "internalType": "uint256",
          "name": "timestamp",
          "type": "uint256"
        }
      ],
      "name": "TweetCreated",
      "type": "event"
    },
    {
      "anonymous": false,
      "inputs": [
        {
          "indexed": false,
          "internalType": "address",
          "name": "liker",
          "type": "address"
        },
        {
          "indexed": false,
          "internalType": "address",
          "name": "tweetAuthor",
          "type": "address"
        },
        {
          "indexed": false,
          "internalType": "uint256",
          "name": "tweetId",
          "type": "uint256"
        },
        {
          "indexed": false,
          "internalType": "uint256",
          "name": "newLikeCount",
          "type": "uint256"
        }
      ],
      "name": "TweetLiked",
      "type": "event"
    },
    {
      "anonymous": false,
      "inputs": [
        {
          "indexed": false,
          "internalType": "address",
          "name": "unliker",
          "type": "address"
        },
        {
          "indexed": false,
          "internalType": "address",
          "name": "tweetAuthor",
          "type": "address"
        },
        {
          "indexed": false,
          "internalType": "uint256",
          "name": "tweetId",
          "type": "uint256"
        },
        {
          "indexed": false,
          "internalType": "uint256",
          "name": "newLikeCount",
          "type": "uint256"
        }
      ],
      "name": "TweetUnliked",
      "type": "event"
    },
    {
      "inputs": [],
      "name": "MAX_TWEET_LENGTH",
      "outputs": [
        {
          "internalType": "uint16",
          "name": "",
          "type": "uint16"
        }
      ],
      "stateMutability": "view",
      "type": "function"
    },
    {
      "inputs": [
        {
          "internalType": "uint16",
          "name": "newTweetLength",
          "type": "uint16"
        }
      ],
      "name": "changeTweetLength",
      "outputs": [],
      "stateMutability": "nonpayable",
      "type": "function"
    },
    {
      "inputs": [
        {
          "internalType": "string",
          "name": "_tweet",
          "type": "string"
        }
      ],
      "name": "createTweet",
      "outputs": [],
      "stateMutability": "nonpayable",
      "type": "function"
    },
    {
      "inputs": [
        {
          "internalType": "address",
          "name": "_owner",
          "type": "address"
        },
        {
          "internalType": "uint256",
          "name": "_i",
          "type": "uint256"
        }
      ],
      "name": "getTweet",
      "outputs": [
        {
          "components": [
            {
              "internalType": "uint256",
              "name": "id",
              "type": "uint256"
            },
            {
              "internalType": "address",
              "name": "author",
              "type": "address"
            },
            {
              "internalType": "string",
              "name": "content",
              "type": "string"
            },
            {
              "internalType": "uint256",
              "name": "timestamp",
              "type": "uint256"
            },
            {
              "internalType": "uint256",
              "name": "likes",
              "type": "uint256"
            }
          ],
          "internalType": "struct Dewitter.Tweet",
          "name": "",
          "type": "tuple"
        }
      ],
      "stateMutability": "view",
      "type": "function"
    },
    {
      "inputs": [
        {
          "internalType": "address",
          "name": "_owner",
          "type": "address"
        }
      ],
      "name": "getTweets",
      "outputs": [
        {
          "components": [
            {
              "internalType": "uint256",
              "name": "id",
              "type": "uint256"
            },
            {
              "internalType": "address",
              "name": "author",
              "type": "address"
            },
            {
              "internalType": "string",
              "name": "content",
              "type": "string"
            },
            {
              "internalType": "uint256",
              "name": "timestamp",
              "type": "uint256"
            },
            {
              "internalType": "uint256",
              "name": "likes",
              "type": "uint256"
            }
          ],
          "internalType": "struct Dewitter.Tweet[]",
          "name": "",
          "type": "tuple[]"
        }
      ],
      "stateMutability": "view",
      "type": "function"
    },
    {
      "inputs": [
        {
          "internalType": "address",
          "name": "author",
          "type": "address"
        },
        {
          "internalType": "uint256",
          "name": "_id",
          "type": "uint256"
        }
      ],
      "name": "likeTweet",
      "outputs": [],
      "stateMutability": "nonpayable",
      "type": "function"
    },
    {
      "inputs": [],
      "name": "owner",
      "outputs": [
        {
          "internalType": "address",
          "name": "",
          "type": "address"
        }
      ],
      "stateMutability": "view",
      "type": "function"
    },
    {
      "inputs": [
        {
          "internalType": "address",
          "name": "",
          "type": "address"
        },
        {
          "internalType": "uint256",
          "name": "",
          "type": "uint256"
        }
      ],
      "name": "tweets",
      "outputs": [
        {
          "internalType": "uint256",
          "name": "id",
          "type": "uint256"
        },
        {
          "internalType": "address",
          "name": "author",
          "type": "address"
        },
        {
          "internalType": "string",
          "name": "content",
          "type": "string"
        },
        {
          "internalType": "uint256",
          "name": "timestamp",
          "type": "uint256"
        },
        {
          "internalType": "uint256",
          "name": "likes",
          "type": "uint256"
        }
      ],
      "stateMutability": "view",
      "type": "function"
    },
    {
      "inputs": [
        {
          "internalType": "address",
          "name": "author",
          "type": "address"
        },
        {
          "internalType": "uint256",
          "name": "_id",
          "type": "uint256"
        }
      ],
      "name": "unlikeTweet",
      "outputs": [],
      "stateMutability": "nonpayable",
      "type": "function"
    }
  ],
  "bytecode": "0x60806040526101406000806101000a81548161ffff021916908361ffff16021790555034801561002e57600080fd5b5033600260006101000a81548173ffffffffffffffffffffffffffffffffffffffff021916908373ffffffffffffffffffffffffffffffffffffffff160217905550611a1c8061007f6000396000f3fe608060405234801561001057600080fd5b50600436106100935760003560e01c8063633782161161006657806363378216146101345780636eb10797146101505780637c9cd2bc1461016e5780638da5cb5b1461018a5780639e92b093146101a857610093565b806305a1b4a914610098578063112f54e3146100cc5780633d9b569f146100fc57806358bfa4ab14610118575b600080fd5b6100b260048036038101906100ad9190610dff565b6101d8565b6040516100c3959493929190610eed565b60405180910390f35b6100e660048036038101906100e19190610dff565b6102d3565b6040516100f39190611025565b60405180910390f35b61011660048036038101906101119190610dff565b610453565b005b610132600480360381019061012d9190611081565b6106b7565b005b61014e60048036038101906101499190610dff565b610766565b005b610158610925565b60405161016591906110bd565b60405180910390f35b6101886004803603810190610183919061120d565b610937565b005b610192610b48565b60405161019f9190611256565b60405180910390f35b6101c260048036038101906101bd9190611271565b610b6e565b6040516101cf91906113d6565b60405180910390f35b600160205281600052604060002081815481106101f457600080fd5b9060005260206000209060050201600091509150508060000154908060010160009054906101000a900473ffffffffffffffffffffffffffffffffffffffff169080600201805461024490611427565b80601f016020809104026020016040519081016040528092919081815260200182805461027090611427565b80156102bd5780601f10610292576101008083540402835291602001916102bd565b820191906000526020600020905b8154815290600101906020018083116102a057829003601f168201915b5050505050908060030154908060040154905085565b6102db610d12565b600160008473ffffffffffffffffffffffffffffffffffffffff1673ffffffffffffffffffffffffffffffffffffffff168152602001908152602001600020828154811061032c5761032b611458565b5b90600052602060002090600502016040518060a0016040529081600082015481526020016001820160009054906101000a900473ffffffffffffffffffffffffffffffffffffffff1673ffffffffffffffffffffffffffffffffffffffff1673ffffffffffffffffffffffffffffffffffffffff1681526020016002820180546103b590611427565b80601f01602080910402602001604051908101604052809291908181526020018280546103e190611427565b801561042e5780601f106104035761010080835404028352916020019161042e565b820191906000526020600020905b81548152906001019060200180831161041157829003601f168201915b5050505050815260200160038201548152602001600482015481525050905092915050565b80600160008473ffffffffffffffffffffffffffffffffffffffff1673ffffffffffffffffffffffffffffffffffffffff16815260200190815260200160002082815481106104a5576104a4611458565b5b906000526020600020906005020160000154146104f7576040517f08c379a00000000000000000000000000000000000000000000000000000000081526004016104ee906114d3565b60405180910390fd5b6000600160008473ffffffffffffffffffffffffffffffffffffffff1673ffffffffffffffffffffffffffffffffffffffff168152602001908152602001600020828154811061054a57610549611458565b5b9060005260206000209060050201600401541161059c576040517f08c379a00000000000000000000000000000000000000000000000000000000081526004016105939061153f565b60405180910390fd5b600160008373ffffffffffffffffffffffffffffffffffffffff1673ffffffffffffffffffffffffffffffffffffffff16815260200190815260200160002081815481106105ed576105ec611458565b5b9060005260206000209060050201600401600081548092919061060f9061158e565b91905055507f762c2616349603ac16eba0de8e6141b79129a07ab63bd99e0a80b3a471716943338383600160008773ffffffffffffffffffffffffffffffffffffffff1673ffffffffffffffffffffffffffffffffffffffff168152602001908152602001600020858154811061068957610688611458565b5b9060005260206000209060050201600401546040516106ab94939291906115b7565b60405180910390a15050565b600260009054906101000a900473ffffffffffffffffffffffffffffffffffffffff1673ffffffffffffffffffffffffffffffffffffffff163373ffffffffffffffffffffffffffffffffffffffff1614610747576040517f08c379a000000000000000000000000000000000000000000000000000000000815260040161073e90611648565b60405180910390fd5b806000806101000a81548161ffff021916908361ffff16021790555050565b80600160008473ffffffffffffffffffffffffffffffffffffffff1673ffffffffffffffffffffffffffffffffffffffff16815260200190815260200160002082815481106107b8576107b7611458565b5b9060005260206000209060050201600001541461080a576040517f08c379a0000000000000000000000000000000000000000000000000000000008152600401610801906114d3565b60405180910390fd5b600160008373ffffffffffffffffffffffffffffffffffffffff1673ffffffffffffffffffffffffffffffffffffffff168152602001908152602001600020818154811061085b5761085a611458565b5b9060005260206000209060050201600401600081548092919061087d90611668565b91905055507fe8a76fc0f16d11a00d1e93b689b63d76cf60af914dd3d915375dc41d01a0c3c8338383600160008773ffffffffffffffffffffffffffffffffffffffff1673ffffffffffffffffffffffffffffffffffffffff16815260200190815260200160002085815481106108f7576108f6611458565b5b90600052602060002090600502016004015460405161091994939291906115b7565b60405180910390a15050565b60008054906101000a900461ffff1681565b60008054906101000a900461ffff1661ffff168151111561098d576040517f08c379a0000000000000000000000000000000000000000000000000000000008152600401610984906116fc565b60405180910390fd5b60006040518060a00160405280600160003373ffffffffffffffffffffffffffffffffffffffff1673ffffffffffffffffffffffffffffffffffffffff1681526020019081526020016000208054905081526020013373ffffffffffffffffffffffffffffffffffffffff16815260200183815260200142815260200160008152509050600160003373ffffffffffffffffffffffffffffffffffffffff1673ffffffffffffffffffffffffffffffffffffffff1681526020019081526020016000208190806001815401808255809150506001900390600052602060002090600502016000909190919091506000820151816000015560208201518160010160006101000a81548173ffffffffffffffffffffffffffffffffffffffff021916908373ffffffffffffffffffffffffffffffffffffffff1602179055506040820151816002019081610ae091906118c8565b50606082015181600301556080820151816004015550507f16fd3c13e9d46923e0a8bce11c7b473ec508a72e6c96cd2404b29ce972afc29e8160000151826020015183604001518460600151604051610b3c949392919061199a565b60405180910390a15050565b600260009054906101000a900473ffffffffffffffffffffffffffffffffffffffff1681565b6060600160008373ffffffffffffffffffffffffffffffffffffffff1673ffffffffffffffffffffffffffffffffffffffff168152602001908152602001600020805480602002602001604051908101604052809291908181526020016000905b82821015610d0757838290600052602060002090600502016040518060a0016040529081600082015481526020016001820160009054906101000a900473ffffffffffffffffffffffffffffffffffffffff1673ffffffffffffffffffffffffffffffffffffffff1673ffffffffffffffffffffffffffffffffffffffff168152602001600282018054610c6290611427565b80601f0160208091040260200160405190810160405280929190818152602001828054610c8e90611427565b8015610cdb5780601f10610cb057610100808354040283529160200191610cdb565b820191906000526020600020905b815481529060010190602001808311610cbe57829003601f168201915b505050505081526020016003820154815260200160048201548152505081526020019060010190610bcf565b505050509050919050565b6040518060a0016040528060008152602001600073ffffffffffffffffffffffffffffffffffffffff1681526020016060815260200160008152602001600081525090565b6000604051905090565b600080fd5b600080fd5b600073ffffffffffffffffffffffffffffffffffffffff82169050919050565b6000610d9682610d6b565b9050919050565b610da681610d8b565b8114610db157600080fd5b50565b600081359050610dc381610d9d565b92915050565b6000819050919050565b610ddc81610dc9565b8114610de757600080fd5b50565b600081359050610df981610dd3565b92915050565b60008060408385031215610e1657610e15610d61565b5b6000610e2485828601610db4565b9250506020610e3585828601610dea565b9150509250929050565b610e4881610dc9565b82525050565b610e5781610d8b565b82525050565b600081519050919050565b600082825260208201905092915050565b60005b83811015610e97578082015181840152602081019050610e7c565b60008484015250505050565b6000601f19601f8301169050919050565b6000610ebf82610e5d565b610ec98185610e68565b9350610ed9818560208601610e79565b610ee281610ea3565b840191505092915050565b600060a082019050610f026000830188610e3f565b610f0f6020830187610e4e565b8181036040830152610f218186610eb4565b9050610f306060830185610e3f565b610f3d6080830184610e3f565b9695505050505050565b610f5081610dc9565b82525050565b610f5f81610d8b565b82525050565b600082825260208201905092915050565b6000610f8182610e5d565b610f8b8185610f65565b9350610f9b818560208601610e79565b610fa481610ea3565b840191505092915050565b600060a083016000830151610fc76000860182610f47565b506020830151610fda6020860182610f56565b5060408301518482036040860152610ff28282610f76565b91505060608301516110076060860182610f47565b50608083015161101a6080860182610f47565b508091505092915050565b6000602082019050818103600083015261103f8184610faf565b905092915050565b600061ffff82169050919050565b61105e81611047565b811461106957600080fd5b50565b60008135905061107b81611055565b92915050565b60006020828403121561109757611096610d61565b5b60006110a58482850161106c565b91505092915050565b6110b781611047565b82525050565b60006020820190506110d260008301846110ae565b92915050565b600080fd5b600080fd5b7f4e487b7100000000000000000000000000000000000000000000000000000000600052604160045260246000fd5b61111a82610ea3565b810181811067ffffffffffffffff82111715611139576111386110e2565b5b80604052505050565b600061114c610d57565b90506111588282611111565b919050565b600067ffffffffffffffff821115611178576111776110e2565b5b61118182610ea3565b9050602081019050919050565b82818337600083830152505050565b60006111b06111ab8461115d565b611142565b9050828152602081018484840111156111cc576111cb6110dd565b5b6111d784828561118e565b509392505050565b600082601f8301126111f4576111f36110d8565b5b813561120484826020860161119d565b91505092915050565b60006020828403121561122357611222610d61565b5b600082013567ffffffffffffffff81111561124157611240610d66565b5b61124d848285016111df565b91505092915050565b600060208201905061126b6000830184610e4e565b92915050565b60006020828403121561128757611286610d61565b5b600061129584828501610db4565b91505092915050565b600081519050919050565b600082825260208201905092915050565b6000819050602082019050919050565b600060a0830160008301516112e26000860182610f47565b5060208301516112f56020860182610f56565b506040830151848203604086015261130d8282610f76565b91505060608301516113226060860182610f47565b5060808301516113356080860182610f47565b508091505092915050565b600061134c83836112ca565b905092915050565b6000602082019050919050565b600061136c8261129e565b61137681856112a9565b935083602082028501611388856112ba565b8060005b858110156113c457848403895281516113a58582611340565b94506113b083611354565b925060208a0199505060018101905061138c565b50829750879550505050505092915050565b600060208201905081810360008301526113f08184611361565b905092915050565b7f4e487b7100000000000000000000000000000000000000000000000000000000600052602260045260246000fd5b6000600282049050600182168061143f57607f821691505b602082108103611452576114516113f8565b5b50919050565b7f4e487b7100000000000000000000000000000000000000000000000000000000600052603260045260246000fd5b7f545745455420444f4553204e4f54204558495354000000000000000000000000600082015250565b60006114bd601483610e68565b91506114c882611487565b602082019050919050565b600060208201905081810360008301526114ec816114b0565b9050919050565b7f545745455420484153204e4f204c494b45530000000000000000000000000000600082015250565b6000611529601283610e68565b9150611534826114f3565b602082019050919050565b600060208201905081810360008301526115588161151c565b9050919050565b7f4e487b7100000000000000000000000000000000000000000000000000000000600052601160045260246000fd5b600061159982610dc9565b9150600082036115ac576115ab61155f565b5b600182039050919050565b60006080820190506115cc6000830187610e4e565b6115d96020830186610e4e565b6115e66040830185610e3f565b6115f36060830184610e3f565b95945050505050565b7f594f5520415245204e4f5420544845204f574e45522100000000000000000000600082015250565b6000611632601683610e68565b915061163d826115fc565b602082019050919050565b6000602082019050818103600083015261166181611625565b9050919050565b600061167382610dc9565b91507fffffffffffffffffffffffffffffffffffffffffffffffffffffffffffffffff82036116a5576116a461155f565b5b600182019050919050565b7f547765657420697320746f6f206c6f6e67210000000000000000000000000000600082015250565b60006116e6601283610e68565b91506116f1826116b0565b602082019050919050565b60006020820190508181036000830152611715816116d9565b9050919050565b60008190508160005260206000209050919050565b60006020601f8301049050919050565b600082821b905092915050565b60006008830261177e7fffffffffffffffffffffffffffffffffffffffffffffffffffffffffffffffff82611741565b6117888683611741565b95508019841693508086168417925050509392505050565b6000819050919050565b60006117c56117c06117bb84610dc9565b6117a0565b610dc9565b9050919050565b6000819050919050565b6117df836117aa565b6117f36117eb826117cc565b84845461174e565b825550505050565b600090565b6118086117fb565b6118138184846117d6565b505050565b5b818110156118375761182c600082611800565b600181019050611819565b5050565b601f82111561187c5761184d8161171c565b61185684611731565b81016020851015611865578190505b61187961187185611731565b830182611818565b50505b505050565b600082821c905092915050565b600061189f60001984600802611881565b1980831691505092915050565b60006118b8838361188e565b9150826002028217905092915050565b6118d182610e5d565b67ffffffffffffffff8111156118ea576118e96110e2565b5b6118f48254611427565b6118ff82828561183b565b600060209050601f8311600181146119325760008415611920578287015190505b61192a85826118ac565b865550611992565b601f1984166119408661171c565b60005b8281101561196857848901518255600182019150602085019450602081019050611943565b868310156119855784890151611981601f89168261188e565b8355505b6001600288020188555050505b505050505050565b60006080820190506119af6000830187610e3f565b6119bc6020830186610e4e565b81810360408301526119ce8185610eb4565b90506119dd6060830184610e3f565b9594505050505056fea2646970667358221220afd48c4e94abbe5f91027862241afe9f3546859fc60d101addda0cebfedc9d5e64736f6c63430008180033",
  "linkReferences": {},
  "deployedLinkReferences": {}
}